:100000000C945B000C94731A0C94321A0C94731AAF
:100010000C94731A0C94791A0C943A140C94731A65
:100020000C94AA160C94731A0C94731A0C94731AE9
:100030000C94731A0C94731A0C94731A0C94731A0C
:100040000C94731A0C94731A0C94731A0C94731AFC
:100050000C94731A0C94B9100C94731A0C94FA152E
:100060000C9411150C947E160C9452160C942616B2
:100070000C94DF140C94F7120C94731ACE05280616
:10008000E4053E06FB05550612066C06780079026B
:1000900080790279120035247912794E80794E796F
:1000A000500035347950795280795279530034D9DF
:1000B00079537955800011241FBECFEFCDBFDFE704
:1000C000DEBFECE8F0E040E017C0B591A5913591B6
:1000D0002591059107FD0CC095918591EF01F92FB0
:1000E000E82F05900D92A217B307D9F7FE0104C0BF
:1000F0001D92A217B307E1F7E53BF40731F70E9421
:0A0100006E110C94A219F894FFCFC1
:10010A00A5E2B0E0EBE8F0E00C9452188E8F9F8FD6
:10011A006E8B7F8B298FFB010190F081E02DE9879F
:10012A00FA87FB0102811381248135812A8B3B8B5B
:10013A008085918588A399A326803780FA018080DB
:10014A009180A280B38020E030E0A901C501B4010A
:10015A000E944F1A87FF06C0B7FAB094B7F8B09456
:10016A008DE204C0598552FF54C38BE2F1018083AA
:10017A002A893B89215031092B833C8341E050E095
:10018A00488B598B06C08A899B898B839C83188AE2
:10019A00198AD501C401BF770097E0E8AE07EFE7F7
:1001AA00BE0799F4F98D2F2FFF0F330B2154310914
:1001BA0088899989820D931D2A31310518F46EEECA
:1001CA0073EB19C062EF73EB16C00197A048BF47E3
:1001DA00A8F0498D242F440F330B21543109888903
:1001EA009989820D931D2A31310518F466EF73EB54
:1001FA0002C06AEF73EB0E94FF19FAC220E030E0F6
:10020A00A901C501B4010E944F1AC12CD12C20E8C2
:10021A00E22E2FE3F22E19821A82882309F48CC067
:10022A008D829E82AF82B88620E030E040E251E4BF
:10023A00C701B6010E94651A2B013C01D501C40110
:10024A0084199509A609B709B7FF07C0B095A09503
:10025A00909581959F4FAF4FBF4F0297A105B1056A
:10026A0044F489819A81019689839A837301620190
:10027A00DBCFA5019401C301B2010E944F1A87FD89
:10028A00F0CF8D819E81AF81B8858C199D09AE0909
:10029A00BF090196A11DB11D0397A105B10508F477
:1002AA0049C01D821E82A5019401C701B6010E94A0
:1002BA00541A18160CF040C0E981FA81E43DFE4F49
:1002CA00E4F44D815E81452BC1F420E030E040E842
:1002DA005AE5C501B4010E94651A4B015C0120E090
:1002EA0030E040E85AE5C701B6010E94651A6B0181
:1002FA007C0181E090E08D839E8320E030E040E243
:10030A0051E4C701B6010E94611A6B017C01E981BF
:10031A00FA813197E983FA83D501C4018C199D09C1
:10032A00AE09BF090196A11DB11D0397A105B1052B
:10033A0008F0B9CF46015701F98D8F2FFF0F990B9E
:10034A000E94071A888F17FD03C00D831E8304C0FD
:10035A0026E030E02D833E83388D373639F4012B81
:10036A0041F441E050E04D835E8303C0288D2F871E
:10037A0014C089819A818C3F9F4F0CF44FC28981A6
:10038A009A81ED81FE818E179F070CF047C2298161
:10039A003A8137FF46C236E63F874D815E814F5F1D
:1003AA005F4F4D835E835F855636B9F489819A81A2
:1003BA0097FF08C0C12CD12C90E8E92E9FE3F92EB3
:1003CA0019821A82988D973641F0ED81FE81298132
:1003DA003A81E20FF31FED83FE831C2DDCA2EAA211
:1003EA000F2D8B869C86AD86BE861C8A1D8A8C89BB
:1003FA009D89ED81FE818E179F07DCF5212F3CA197
:10040A004AA1502F6B857C858D859E850E94611A35
:10041A000E94570D2B013C010E942B1A6A8FA301DF
:10042A009201612F7CA18AA1902F0E94651A2B85C7
:10043A003C854D855E850E940F1A9B01AC01505880
:10044A002B873C874D875E8720E030E040E251E40D
:10045A00612F7CA18AA1902F0E94611A162F7CA37A
:10046A008AA3092F4C895D894F5F5F4F4C8B5D8B47
:10047A00BECF20E030E040EA50E4612F7CA18AA19F
:10048A00902F0E94651A2B013C019B01AC016B85E0
:10049A007C858D859E850E944F1A87FD0DC0A3011C
:1004AA0092016B857C858D859E850E944F1A8111EC
:1004BA0006C0FA8DF0FD03C0412C512C3201A50172
:1004CA009401C301B2010E94101A4B015C0120E0A1
:1004DA0030E040E251E4C701B6010E94651A6B8719
:1004EA007C8B182F092F9B01482F592FC501B40166
:1004FA000E94541A87FD14C029813A812F5F3F4F09
:10050A0029833A833F85363679F44D815E814F5F80
:10051A005F4F4D835E835B855CA38C898DA30BC083
:10052A00CB86DC8A1E2D0F2D9F85953639F0EB85FB
:10053A00ECA3FC89FDA3E980FA8006C02B852CA3D5
:10054A003C893DA3E12CF12C48885988C12CD12C37
:10055A001C8A1D8A1B861C8649855A854071552727
:10056A004AA35BA32B853C854D815E812417350701
:10057A0034F08C899D89892B09F494C09FC032017B
:10058A00EE89FF898085918505974816590688F76F
:10059A002CA13DA1412F502FC501B4010E94611A1F
:1005AA000E94570D6A8F7B8F8C8F9D8F0E942B1A0A
:1005BA006A30710514F069E070E08AA19BA1892B69
:1005CA0069F46115710551F4988D973639F4F7FE7F
:1005DA0005C03601EFEF6E1A7E0A38C02C893D89B4
:1005EA00232B99F4F7FE11C03FEF431A530AF10186
:1005FA00E60DF71D4EE240838B819C8101978B8328
:10060A009C83E1E0F0E0EC8BFD8BF101E40DF51D3C
:10061A0036016114710431F020E3219331E0631A49
:10062A007108F7CFC601840D951D2B813C812C19C9
:10063A003D092C014FEF441A540AF101E80FF91F42
:10064A00605D6083C90101978B839C832A8D3B8DF2
:10065A004C8D5D8D6CA17DA1812F902F0E94651A12
:10066A00A50194010E940F1A4B015C01B7FAB094DC
:10067A00B7F8B09420E030E040E251E46CA17DA1EB
:10068A00812F902F0E94611A6CA37DA3182F092F26
:10069A0091E0E91AF108EB85FC853196EB87FC8736
:1006AA00630160CFF985F4FF09C0F101E40DF51D7E
:1006BA008EE2808392012F5F3F4F2901A101440DF1
:1006CA00551D4D835E83FA011082FF85F53609F0C8
:1006DA0063C0E8A1F9A1E20DF31D319710822981C7
:1006EA003A8137FF08C031952195310929833A8328
:1006FA0001E010E002C000E010E0E8A1F9A13197A2
:10070A00E20DF31D22E030E08AE0E82EF12CCF0161
:10071A008219930949815A81452B91F089819A81DD
:10072A00B7010E94CC18805D829369837A83215035
:10073A0031094B815C81415051094B835C83E7CF7E
:10074A00121613065CF3FC013197E20DF31D012B1F
:10075A0011F42BE201C02DE220830297B101680F48
:10076A00791F598D252F550F330B215431092A3101
:10077A00310510F025E601C025E4FB0120832B8119
:10078A003C81225031092B833C834816590624F4B4
:10079A008D819E810E94FF19398531FF29C030FD64
:1007AA0027C04B815C811416150614F5C1010E94FD
:1007BA004F19820D931D9C012219330948895989C1
:1007CA00241735074CF0FC012081EB81FC81E80FEE
:1007DA00F91F20830197EFCF4B815C8160E370E0C2
:1007EA0088899989820D931D0E94E5191A8A1B8AA4
:1007FA00C1010E944F1909851A852A893B89AC01D2
:10080A00B1018E8D9F8D0E947314A596E2E10C941E
:10081A008418598553FFB7CC80E2A8CCF5E6FF8748
:08082A00DCCD36E63F87D9CD95
:100832002F923F924F925F926F927F928F929F92EE
:10084200AF92BF92CF92DF92EF92FF920F931F93DC
:10085200CF93DF93CDB7DEB76F97CDBFDEBF6D8786
:100862007E878F87988B29013A0118014701CC8A2C
:10087200DD8AA114B10499F10DE7A0160EE2B006CB
:10088200A8F1B50180E090E00E9485136B017C0124
:100892009B01AC0160E070EF89E396E40E94611A6B
:1008A20020E030E040E057E40E94651A20E030E0AA
:1008B20040E05FE30E94101A0E9442156E8F7F8F04
:1008C200A70196016CE974EE86E29CE40E94611A2B
:1008D2000E94421569877A878B879C8713C0198685
:1008E2001A861B861C861E8E1F8E0CC080E090E826
:1008F200A0E0B0E089879A87AB87BC87A0E0B0E828
:10090200AE8FBF8F77205CF47094609450944094C3
:10091200411C511C611C711CB1E0B98B01C0198AC8
:10092200EC89FD89AF01AE2EB52EC12CD12CE12C64
:10093200F12C00E010E02E2F352F40E050E060E077
:1009420070E080E090E00E9412122E8B3F8B488F65
:10095200598F6A8F7B8F8C8F9D8F5101A80CB91C88
:10096200AA8ABB8AA401282D352F40E050E060E01E
:1009720070E080E090E001E10E946B185101C12C0F
:10098200D12CE12CF12C87012982BA82CB82DC8224
:10099200ED82FE820F831887C12CD12CE12CF12C21
:1009A20000E010E00E94121263015201E12CF12CCE
:1009B20087014982BA82CB82DC82ED82FE820F837A
:1009C2001887E12CF12C00E010E00E941212CA8874
:1009D200DB885601C12CD12CE12CF12C8701A98294
:1009E200BA82CB82DC82ED82FE820F831887C12C11
:1009F200D12CE12CF12C00E010E00E944319A22E30
:100A0200B32EC42ED52EE62EF72E082F192F2E899F
:100A12003F89488D598D6A8D7B8D8C8D9D8D0E946D
:100A2200DC1938F5A40160E070E0032E31E1440FD7
:100A3200551F661F771F3A95D1F7302DDB01CA018A
:100A4200BB0F880B982FDC01A42EB52EC62ED72EF5
:100A5200E82EF82E082F182F488D598D6A8D7B8D20
:100A62008C8D9D8D0E944319C22ED32EE42EF52E1D
:100A72000EC0D101A30192010E949719EA88FB8856
:100A8200970140E050E00E94461769017A011092F6
:100A92004C7910924D790E8D09831F8D1A8B2E8DF4
:100AA2003F8D2130304818F0198200E80A8B898185
:100AB2009A890E94CA19411451046104710409F40B
:100AC20048C100E010E0AC88BD88A218B308C41485
:100AD200D504E604F70470F40A151B0518F4020D98
:100AE200131D13C08C899D890817190770F40F5FB5
:100AF2001F4F0BC08016910618F40819190905C07A
:100B02000230110510F001501109D80129853A85EA
:100B12004B855C850E949719AE8DBF8D8A0F9B1FF6
:100B22008130B0E89B0710F080E090E80E94CA197B
:100B3200809154798823E1F31092547920914C7971
:100B420030914D79C801820F931F80934C79909315
:100B52004D798217930708F0F6C031E0431A510825
:100B62006108710880914A7990914B799C012F77A5
:100B72003327AC01440F452F441F550B5195437049
:100B8200440FE989E42B4E2FEE0F550B660B770BC2
:100B9200FA01E25CFF4F0C94441AEFE7F0E0E21B2B
:100BA200F30BEE0FFF1FEE5FF74860817181220F9A
:100BB200331FF901EE5FF7482081318140E050E0B8
:100BC200E0E0F0E09DC0F901EE0FFF1FEE5FF74895
:100BD2000190F081E02DAFE7B0E0A21BB30BAA0FAA
:100BE200BB1FAE5FB7482D913C9140E050E060E002
:100BF20070E086C0EFE7F0E0E21BF30BEE0FFF1FA1
:100C0200EE5FF7480190F081E02D220F331FD901EA
:100C1200AE5FB7484D915C9120E030E060E070E05B
:100C22006FC0F901EE0FFF1FEE5FF748608171811F
:100C3200EFE7F0E0E21BF30BEE0FFF1FEE5FF7486A
:100C42004081518120E030E0E0E0F0E059C0EFE780
:100C5200F0E0E21BF30BEE0FFF1FEE5FF74860813F
:100C62007181220F331FF901EE5FF74840815181F4
:100C720020E030E0E0E0F0E043C0F901EE0FFF1FBA
:100C8200EE5FF7480190F081E02DAFE7B0E0A21BE4
:100C9200B30BAA0FBB1FAE5FB7484D915C9120E02A
:100CA20030E060E070E02CC0EFE7F0E0E21BF30B15
:100CB200EE0FFF1FEE5FF7480190F081E02D220F4B
:100CC200331FD901AE5FB7482D913C9140E050E00F
:100CD20060E070E015C0F901EE0FFF1FEE5FF7480C
:100CE20060817181EFE7F0E0E21BF30BEE0FFF1F73
:100CF200EE5FF7482081318140E050E0E0E0F0E033
:100D02000196917080934A7990934B79CF010E941A
:100D12008C198989882361F08D859E85AF85B88974
:100D22000197A109B1098D879E87AF87B88B0BC048
:100D32008D859E85AF85B8890196A11DB11D8D87D0
:100D42009E87AF87B88B411451046104710409F086
:100D5200BECE89819A890E94CA1920E030E040E023
:100D620050E060E070E080E090E00E948C196D85B8
:100D72007E858F8598896F96CDBFDEBFDF91CF913B
:100D82001F910F91FF90EF90DF90CF90BF90AF90A7
:100D92009F908F907F906F905F904F903F902F9099
:020DA2000895B2
:100DA400AEE0B0E0E8EDF6E00C9455184C016B01B0
:100DB40019821A828FEF9FEF8B839C831D821E8280
:100DC4004F83588729873A87A12CB12CD6016D907F
:100DD4007C90F301EA0DFB1D808181110FC0D601C7
:100DE400ED93FC938081853209F0D3C13F01BFEFBD
:100DF4006B1A7B0AF6016082718219C0853279F31D
:100E0400B401082E000C990B0E9462124FEFA41A31
:100E1400B40ADCCF8C32ACF08D32F9F489819A813A
:100E2400816089839A833196D601ED93FC93D60130
:100E3400ED91FC9180818B3269F789819A8184607C
:100E4400F0CF803221F489819A818860EACF83329D
:100E540051F489819A818061E4CF803321F48981BE
:100E64009A818260DECFB701C6010E949F158D83EF
:100E74009E8397FF0BC029813A81B1E02B272983F8
:100E84003A839195819591098D839E8389819A8175
:100E940080FF03C08D7F89839A83D601ED91FC91F5
:100EA400119780818E3249F43196ED93FC93B7010A
:100EB400C6010E949F158B839C83C6010E948817DC
:100EC400582ED601ED91FC918081082E000C990BCF
:100ED4000E94071A893609F443C084F4833609F45E
:100EE40002C134F4853209F427C18136E1F030C1FE
:100EF4008436B1F188360CF4D9C02AC1803709F49C
:100F04009AC03CF48E3609F4BCC08F3609F461C033
:100F14001FC1853709F440C0883709F476C0833788
:100F240009F016C1F3C0652D70E0A701CE010B9640
:100F34000E94A817892B09F426C1D601ED91FC91D2
:100F44001197CF0101968D939C932081AE01455F4B
:100F54005F4FBE016F5F7F4FC4010E94000010C14C
:100F6400652D70E0970141E050E0CE010B960E94A0
:100F7400850F892B09F407C1F601808191810196BF
:100F840080839183AE01455F5F4FBE016F5F7F4FEA
:100F9400C4010E94CA0DF4C0652D70E0970140E0C1
:100FA40050E0CE010B960E94850F892B09F4EBC00B
:100FB400D6018D919C91119701968D939C93AE01CE
:100FC400455F5F4FBE016F5F7F4FC4010E943E13B8
:100FD400D7C0652D70E0970140E050E0CE010B963C
:100FE4000E94850F892B09F4CEC0F601808191817E
:100FF400019680839183AE01455F5F4FBE016F5FB1
:101004007F4FC4010E941511BBC0652D70E097018C
:1010140040E050E0CE010B960E94850F892B09F425
:10102400B2C0D601ED91FC911197CF0101968D9339
:101034009C9320811CC0970140E050E060EF70E079
:10104400CE010B960E94850F892B09F49CC0F601F2
:10105400808191810196808391838B859C85892BE6
:1010640029F420E030E040EE54EB84C028E7AE01E0
:10107400455F5F4FBE016F5F7F4FC4010E94D00880
:101084007FC0A501400F511F652D70E09701CE016F
:101094000B960E940000892B09F475C0D6018D912E
:1010A4009C91119701968D939C9373C0652D70E06C
:1010B400A701CE010B960E94A817892B09F463C0DF
:1010C400D601ED91FC911197CF0101968D939C93DC
:1010D4002081AE01455F5F4FBE016F5F7F4FC4014A
:1010E4000E9485004DC0B0E85B124DC0F6018081BE
:1010F4009181019680839183D701ED91FC911197A1
:10110400CF0102968D939C93808120C0B0E85B123E
:101114003AC0F60180819181019680839183D70141
:10112400ED91FC911197CF0102968D939C93408190
:10113400518120E030E01EC0B0E85B1224C0F6010B
:10114400208131812F5F3F4F208331838B870DC0F6
:1011540085E28B87D6016D927C9219821A821D8258
:101164001E828FEF9FEF8B839C8321E030E0AE01E2
:10117400455F5F4FBE016F5F7F4FC4010E94D6166B
:101184008A0D9B1D07C0F6018081918101968083A1
:0C1194009183C5012E96EFE00C948718A3
:1011A000AFE0B0E0E6EDF8E00C9452181C016B01E2
:1011B00049835A832B83FB018281938184809580AC
:1011C00000811181A680B78097FD02C00D7F02C00B
:1011D00081E090E0E981FA814080518062807380F3
:1011E0009801207133272C833D83740104FF08C0CC
:1011F000411451046104710419F032E0E31AF1085A
:10120000F801E870FF27EE83FF8303FF03C0F1E0DE
:10121000EF1AF108F6010084F185E02D3197EE8791
:10122000FF87EA0DFB1D10829C012E193F092887BC
:101230003987C801827099278A879B87EB818E2F17
:10124000EE0F990B9C01215431092C873D872E8587
:101250003F852230310530F48C819D81892B09F046
:1012600042C05CC0411451046104710461F18E8577
:101270009F8501978E879F87C2018F7099278A303B
:10128000910514F4C09602C0895A9F4FEC85FD85E4
:101290007A9748F49C012062215631092A313105A0
:1012A00010F40E94EE19EE85FF85EA0DFB1D808388
:1012B000F1E0EF1AF10884E076946794579447942C
:1012C0008A95D1F7C4CF888599858E0D9F1D1816F4
:1012D00019066CF21E141F040CF0BECFEA85FB85C4
:1012E000EF2B29F6B9CFE981FA8180819181A28122
:1012F000B381892B8A2B8B2B89F0EE85FF85EA0D34
:10130000FB1D31972B8120838E859F8502978E87C9
:101310009F87FC01EA0DFB1D80E38083EE81FF8146
:10132000EF2B59F02E853F85215031092E873F87BD
:10133000F901EA0DFB1D80E28083F60140855185AD
:10134000415051092E853F85421B530BB9016A0D4F
:101350007B1D9401C1010E9473149C01F1018081E5
:10136000918190FF06C0F6018281938182179307D5
:0C1370000CF4C9012F96E2E10C948418E3
:10137C00CF93DF9380E094E020E1FC012483C0E470
:10138C00D4E01C82A0E6B4E014961C92149740EAB8
:10139C0054E0FA011482FC01208318822FEF2C9365
:1013AC0020E3FA012083FC01108A118A128A138A25
:1013BC00148A158A168A24E0278B188A198A2A8B94
:1013CC002B8B1C8A1D8A1E8A1F8A50961C92509742
:1013DC0051961C92519752961C92529753961C926E
:1013EC00539754961C92549755962C935597569602
:1013FC002C93569757961C92FA01108A118A128ACE
:10140C00138A148A158A168A178AE0EEF5E012867A
:10141C00118210821582108683E0878314861682CF
:10142C0081E082838AE79AE180933E7990933F79B9
:10143C008BE79AE180933C7990933D798CE79AE124
:10144C0080933A7990933B798DE79AE18093387940
:10145C00909339798EE79AE1809336799093377926
:10146C008FE79AE1809334799093357980E89AE10B
:10147C00809332799093337981E89AE18093307933
:10148C009093317982E89AE180932E7990932F7919
:10149C0083E89AE180932C7990932D7984E89AE1F2
:1014AC0080932A7990932B7985E89AE18093287917
:1014BC009093297986E89AE18093267990932779FD
:1014CC0087E89AE1809324799093257988E89AE1CA
:1014DC00809322799093237989E89AE180932079FB
:1014EC00909321798AE89AE180931E7990931F79E1
:1014FC008BE89AE180931C7990931D79DF91CF91C1
:02150C00089540
:10150E004F925F926F927F928F929F92AF92BF9205
:10151E00CF92DF92EF92FF920F931F93CF93DF93B1
:10152E00862E972ED82FC92F29013A0182E10E94CB
:10153E0068175C01BC0180E090E00E9485132FE6E5
:10154E0032E143E85AE30E94651A9F938F937F938B
:10155E006F9388EC97E99F938F930E949C18CF937B
:10156E00DF939F928F92682D792D8D2F9C2F0E9445
:10157E00871320E030E040E05CE30E94651A9F9301
:10158E008F937F936F9382EE97E99F938F930E9431
:10159E009C18B80180E090E00E94851326E636E69E
:1015AE0046EE5FE30E94651A20E034E244E759E418
:1015BE000E94651A20E030E048E45DE40E94611A62
:1015CE009F938F937F936F9381E198E99F938F936E
:1015DE000E949C1868010F2EF6E0EF2EF12CF02DD4
:1015EE0006E010E0A3019201682D792D8D2F9C2F1E
:1015FE000E941904062F172FD82FC92F9F938F9350
:10160E007F936F930E94871320E030E040E05CE30D
:10161E000E94651A9F938F937F936F938AE398E945
:10162E009F938F930E949C188DB79EB780968DBF07
:10163E009EBF88E698E99F938F930E949C180F9007
:10164E000F90602F712F8D2F9C2FDF91CF911F91B7
:10165E000F91FF90EF90DF90CF90BF90AF909F9043
:0C166E008F907F906F905F904F900895D8
:10167A00A4E0B0E0E3E4FBE00C945C188B019C016D
:10168A003F770B3D4FE0140749E424074FE3340743
:10169A0048F40115110540E8240749E3340708F422
:1016AA008AC07BC06B017C01CC24F7FCC394DD2487
:1016BA00EE24FF24023D43E514074BE7240740E4E8
:1016CA00340708F5043E4BEC140746E1240740E4CE
:1016DA00340760F42BED3FE049EC5FE3CC2019F0CE
:1016EA000E94101A60C00E940F1A5AC02BED3FE0E8
:1016FA0049E450E4CC2019F00E94101A02C00E945A
:10170A000F1A90584AC0063D41E3140742EE2407D7
:10171A0040E4340700F5003E4DEE14074FEA240773
:10172A0040E4340760F424EE3BEC46E950E4CC2074
:10173A0019F00E94101A34C00E940F1A34C02BEDFF
:10174A003FE049EC50E4CC2019F00E94101A25C061
:10175A000E940F1A22C00115110540E824074FE71D
:10176A00340728F5AE014F5F5F4F0E943C0E282FC9
:10177A00237069817A818B819C81213089F048F0BC
:10178A00223089F4DC01CB01B05889839A83AB8378
:10179A00BC8369817A818B819C810E94690C0BC010
:1017AA000E94E10C08C00E94E10C905804C06FEF3F
:0E17BA007FEF8FEF9FE72496E8E00C948E18E7
:1017C8000A0D537570706C7920766F6C746167655B
:1017D8003A2009252E32662056000A0D496E697492
:1017E80069616C20706F736974696F6E3A09252E90
:1017F8003266207374657073202F20256C64207303
:1018080075622D7374657073000A0D4D6F76696E7D
:101818006720776974682073706565643A09252EB6
:10182800336620646567726565732F7365636F6ED1
:1018380064000A0D46696E616C20706F7369746983
:101848006F6E3A2009252E326620737465707320F6
:101858002F20256C64207375622D73746570730076
:101868000A0D000A0D2D2D2D2D2D2D2D2D2D2D2D53
:101878002D2D2D2D2D2D2D2D2D2D2D2D2D2D2D2D90
:101888002D2D2D2D2D2D2D2D2D2D2D2D2D2D2D2D80
:101898002D2D2D2D004D6963726F73746570000ACC
:1018A8000D5374657070696E67204D6F64653A20DA
:1018B80025732C20312073746570203D2025642009
:0A18C8007375622D73746570730070
:1018D2004F925F926F927F928F929F92AF92BF923E
:1018E200CF92DF92EF92FF92CF93DF9300D000D09E
:1018F200CDB7DEB74B015C019B01AC010E94651ABA
:101902006B017C019B01AC01C501B4010E94651A07
:1019120069837A838B839C832CE33CE646E356E31C
:10192200C701B6010E94651A2FEC37E040E559E382
:101932000E940F1A2B013C01A7019601C701B601B3
:101942000E94651A29813A814B815C810E94651A45
:101952009B01AC01C301B2010E94651A2B013C013B
:1019620024E838E848E05CE3C701B6010E94651A42
:101972002BEA3AEA4AE25EE30E940F1A29813A818F
:101982004B815C810E94651AA50194010E94101A84
:101992009B01AC01C301B2010E94101A2496CDBF73
:1019A200DEBFDF91CF91FF90EF90DF90CF90BF909D
:1019B200AF909F908F907F906F905F904F9008951F
:1019C2004F925F926F927F928F929F92AF92BF924D
:1019D200CF92DF92EF92FF92CF93DF9300D000D0AD
:1019E200CDB7DEB79B01AC010E94651A6B017C0189
:1019F2009B01AC010E94651A2B013C0120E030E002
:101A020040E05FEBC701B6010E94651A20E030E0BA
:101A120040E85FE30E94101A4B015C012FE93AEAA9
:101A22004AE25DE3C301B2010E94651A9B01AC0167
:101A3200C501B4010E94101A4B015C0127E13AE989
:101A42004CEC57E3C701B6010E94651A2FE334E05C
:101A520046EB5AE30E940F1A69837A838B839C8335
:101A6200A3019201C701B6010E94651A9B01AC0154
:101A720069817A818B819C810E94651A9B01AC01EC
:101A8200C501B4010E94101A2496CDBFDEBFDF91BA
:101A9200CF91FF90EF90DF90CF90BF90AF909F904B
:0C1AA2008F907F906F905F904F900895A0
:101AAE008F929F92AF92BF92CF92DF92EF92FF9260
:101ABE000F931F938B019C0157E136952795179530
:101ACE0007955A95D1F71127A8014F57510947315C
:101ADE0051050CF045C057FD2DC00FEF1FEF2FE73E
:101AEE0030E004C035952795179507954A95D2F79E
:101AFE004801590186229722A822B92289288A28CC
:101B0E008B2871F197FF07C0DC01CB01800F911F6D
:101B1E00A21FB31F02C0DC01CB01009510952095CA
:101B2E00309580239123A223B323482F392F2A2FB8
:101B3E005B2F1AC097FF0FC08B019C01000F111F66
:101B4E00221F331F012B022B032B51F040E030E0FC
:101B5E0020E85FEB09C040E030E020E050E004C038
:101B6E00462F372F282F592F642F732F822F952F03
:101B7E001F910F91FF90EF90DF90CF90BF90AF909D
:061B8E009F908F90089566
:101B9400A2E0B0E0E0EDFDE00C9452183C016B01D2
:101BA400FB0122813381A480B58080819181898366
:101BB4009A8386809780FA01208031804280538006
:101BC400B201A10157FE07C044275527BA014219A3
:101BD40053096409750937FD03C08D7F89839A838E
:101BE400950157FC05C0898182FD02C083FF02C0B4
:101BF40021503109CE0101967C010AE010E0C601B2
:101C04000E94541057FC03C0298122FF0AC0019787
:101C1400F401E80FF91F57FC02C02BE209C02DE2C2
:101C240007C023FF06C00197F401E80FF91F20E263
:101C3400208309811A81F60140855185415051095B
:101C4400481B590BB401680F791F9501C3010E9409
:101C540073149C01F3018081918190FF06C0F60109
:101C640082819381821793070CF4C9012296E2E1E1
:041C74000C94841830
:101C78004F925F926F927F928F929F92AF92BF9294
:101C8800CF92DF92EF92FF921F93CF93DF93EA01F7
:101C98006B017C01CC24F7FCC394DD24EE24FF24E3
:101CA8001C2D0E94751A2B013C0123E839EF42E2F2
:101CB8005FE30E94651A20E030E040E05FE30E94A5
:101CC800101A0E942B1A6B017C010E9487134B018A
:101CD8005C012AED3FE049EC5FE30E94651A9B0135
:101CE800AC01C301B2010E940F1A2B013C0123EA87
:101CF80035E848E852E3C501B4010E94651A9B0122
:101D0800AC01C301B2010E940F1A112361F0DC017A
:101D1800CB01B05888839983AA83BB8388279927E6
:101D28008C199D0905C0688379838A839B83C601C2
:101D3800DF91CF911F91FF90EF90DF90CF90BF90F0
:101D4800AF909F908F907F906F905F904F90089585
:101D580010C00E941D1A58F00E94161A40F029F46B
:101D68005F3F29F00C943E1A51110C94251A0C94DB
:101D78006D1A0E94241768F39923B1F3552391F340
:101D8800951B550BBB27AA2762177307840738F0E2
:101D98009F5F5F4F220F331F441FAA1FA9F335D03F
:101DA8000E2E3AF0E0E832D091505040E695001CF3
:101DB800CAF72BD0FE2F29D0660F771F881FBB1FAD
:101DC800261737074807AB07B0E809F0BB0B802D8B
:101DD800BF01FF2793585F4F3AF09E3F510578F0B7
:101DE8000C943E1A0C94251A5F3FE4F3983ED4F302
:101DF800869577956795B795F7959F5FC9F7880F8B
:101E0800911D9695879597F90895E1E0660F771FDC
:101E1800881FBB1F621773078407BA0720F0621B6D
:0E1E2800730B840BBA0BEE1F88F7E09508953C
:101E36000FC00E94161A38F00E941D1A20F0952332
:101E460011F00C943E1A0C946D1A11240C94251A58
:101E56000E94241770F3959FC1F3950F50E0551F0C
:101E6600629FF001729FBB27F00DB11D639FAA27E9
:101E7600F00DB11DAA1F649F6627B00DA11D661F38
:101E8600829F2227B00DA11D621F739FB00DA11D59
:101E9600621F839FA00D611D221F749F3327A00D13
:101EA600611D231F849F600D211D822F762F6A2FAF
:101EB60011249F5750409AF0F1F088234AF0EE0F14
:101EC600FF1FBB1F661F771F881F91505040A9F741
:101ED6009E3F510580F00C943E1A0C94251A5F3FE4
:101EE600E4F3983ED4F3869577956795B795F7957D
:101EF600E7959F5FC1F7FE2B880F911D96958795F5
:041F060097F90895AA
:101F0A00CF93DF93DC01F90168387105F1F05CF4D5
:101F1A006138710561F164387105A1F160387105A4
:101F2A0009F051C02FC0603C710509F441C0603FFF
:101F3A007105F1F1603A710509F045C0C081D1819E
:101F4A00CE0102968083918325C0C081D181CE01C2
:101F5A00029680839183452B39F04881042E000C28
:101F6A00550B660B770B1CC0488150E029C0C08115
:101F7A00D181CE01049680839183488159816A81F7
:101F8A007B810EC0C081D181CE010296808391836C
:101F9A00452BA1F048815981052E000C660B770B61
:101FAA004D935D936D937C93139781E090E00DC000
:101FBA00C081D181CE010296808391834881598163
:101FCA0060E070E0EDCF80E090E0DF91CF9108957E
:101FDA0011C00E94161A38F00E941D1A20F039F416
:101FEA009F3F19F426F40C946D1A0EF4E095E7FB62
:101FFA000C943E1AE92F0E94241758F3BA17620765
:10200A0073078407950720F079F4A6F50C94241A2F
:10201A000EF4E0950B2EBA2FA02D0B01B9019001F9
:10202A000C01CA01A0011124FF27591B99F0593F3D
:10203A0050F4503E68F11A16F040A22F232F342F85
:10204A004427585FF3CF469537952795A795F040D3
:10205A005395C9F77EF41F16BA0B620B730B840BE8
:10206A00BAF09150A1F0FF0FBB1F661F771F881FA0
:10207A00C2F70EC0BA0F621F731F841F48F48795F8
:10208A0077956795B795F7959E3F08F0B0CF9395EA
:0E209A00880F08F09927EE0F97958795089507
:1020A800A0E0B0E0EAE5F0E10C945418DC01280166
:1020B8001696AD90BC901797F70180819181129682
:1020C800ED91FC9113971896CD91DC911997219772
:1020D800F7FF02C0E1E0F0E0CA0DDB1D18826901DC
:1020E800A1E0B0E08F01021B130B4C01F2E08F223C
:1020F8009924052C000C66087708CE018A199B09DB
:10210800CA15DB0519F1411551056105710589F0FD
:10211800CB01BA01A30192010E944617CA01A62F5A
:10212800B72F605D6A9341E0C41AD108A901BC01C8
:10213800E4CF98012C0D3D1D121613064CF31C1408
:102148001D0434F48114910419F702C080E090E072
:10215800AB2B31F4F701208131812F7E208331832D
:0A216800CDB7DEB7E0E10C94861855
:102172001F920F920FB60F9211242F933F934F93FA
:102182005F936F937F938F939F93AF93BF93EF93DD
:10219200FF93789B05C0E0913A79F0913B790995DC
:1021A200799B05C0E0913879F091397909957A9B4C
:1021B20005C0E0913679F091377909957B9B05C08E
:1021C200E0913479F091357909957C9B05C0E091D5
:1021D2003279F091337909957D9B05C0E091307990
:1021E200F091317909957E9B05C0E0912E79F091AD
:1021F2002F7909957F9B05C0E0912C79F0912D797B
:1022020009958FEF8FB9FF91EF91BF91AF919F9198
:102212008F917F916F915F914F913F912F910F908D
:082222000FBE0F901F901895EC
:10222A00A2E0B0E0EBE1F1E10C9456184C016B012D
:10223A00FB01228133816480758080819181898349
:10224A009A83A680B78037FD03C08D7F89839A83DE
:10225A00FA014081518162817381CE0101967C012C
:10226A0008E010E09301C6010E945410298124FF5E
:10227A0006C00197F501E80FF91F20E320832981A1
:10228A0023FF06C00197F501E80FF91F20E220831A
:10229A0009811A81F6014085518541505109481B2F
:1022AA00590BB501680F791F9301C4010E94731479
:1022BA009C01F4018081918190FF06C0F601828120
:1022CA009381821793070CF4C9012296EEE00C94CD
:0222DA00881862
:1022DC000E9439188DE59AE10E94C1190E94AE1234
:1022EC002FEF31E14AE7215030404040E1F700C088
:1022FC0000008BE698E99F938F930E949C181F9285
:10230C0080E88F938DE998E99F938F9387EA98E9FA
:10231C009F938F930E949C1888E698E99F938F93C4
:10232C000E949C188DB79EB70A968DBF9EBF60E029
:10233C0070E0CB010FEF1FEF20E034EC49E050E0F0
:10234C000E94870A2FE734E84EE12150304040408C
:10235C00E1F700C0000020E03CE346EF5FEF0E9495
:10236C00870A2FE734E84EE1215030404040E1F736
:06237C0000C00000DFCFED
:1023820088249924F401E401B0E49F93AA279A15C2
:102392008B049C04ED05FE05CF05D007A10798F438
:1023A200AD2FDC2FCF2FFE2FE92D982C892E982FC1
:1023B200872F762F652F542F432F322F2227B85085
:1023C20031F7BF9127C01B2EBF91BB27220F331FAE
:1023D200441F551F661F771F881F991F881C991C51
:1023E200EE1FFF1FCC1FDD1FAA1FBB1F8A149B04F9
:1023F200EC05FD05CE05DF05A007B10748F08A18F8
:102402009B08EC09FD09CE09DF09A00BB10B216085
:102412001A94E1F62EF49401AF01BE01CD01000C35
:0224220008951B
:10242400DF93CF931F930F939A9DF02D219FF00D6F
:102434008B9DF00D8A9DE02DF10D039FF00D029F01
:10244400E00DF11D4E9DE00DF11D5E9DF00D4F9DC3
:10245400F00D7F936F93BF92AF925F934F93D5012B
:102464000E9424198B01AC01D7010E942419EB01AD
:10247400E80FF91FD6010E94D3192F913F91D6017D
:102484000E942419C60FD71FE81FF91FAF91BF91EF
:102494000E94D3192F913F910E942419C60FD71F70
:1024A400E81FF91FD6010E942419E60FF71F9801AF
:1024B400BE01CF0111240F911F91CF91DF91089597
:1024C4000F931F93CF93DF93DB01109719F48FEFD2
:1024D4009FEF3DC02D913C91119730FF25C016967A
:1024E4004D915C91179714962D913C911597421735
:1024F400530778F41296ED91FC911397808312960A
:102504002D913C9113972F5F3F4F12962D933C933F
:10251400139716962D913C9117972F5F3F4F169660
:102524002D933C93179713C01C96ED91FC911D9726
:10253400309769F2EB01092F182F0995892B39F689
:102544008E819F8101968E839F83812F902FDF91AF
:08255400CF911F910F91089532
:10255C000F931F93CF93DF931092547902E018E7F7
:10256C00C0E0D0E02196BE0180E090E00E9485138F
:10257C002BED3FE049EC5FE30E94651A20E030E070
:10258C0040E05CE30E94651A0E943D0B20E030E0C5
:10259C0040E057E40E94651A20E030E040E05FE341
:1025AC000E94101A0E944215F801619371938F01D9
:1025BC00C038D105B9F681E00E94331980E090E073
:1025CC000E94CA1920E030E040E050E060E070E08A
:1025DC0080E090E00E948C19DF91CF911F910F91B8
:0225EC00089550
:1025EE001F920F920FB60F9211242F933F934F937A
:1025FE005F936F937F938F939F93AF93BF93EF935D
:10260E00FF93BA9B05C0E0912A79F0912B79099539
:10261E00BB9B05C0E0912279F09123790995BE9B71
:10262E0005C0E0912079F09121790995BC9B05C0F8
:10263E00E0911E79F0911F790995BD9B05C0E0913F
:10264E001C79F0911D7909958FEF87BBFF91EF9162
:10265E00BF91AF919F918F917F916F915F914F91AC
:0E266E003F912F910F900FBE0F901F90189567
:10267C00A2E0B0E0E4E4F3E10C9456185C016B01C9
:10268C00FB012281338184809580808191818983B3
:10269C009A836680778037FD03C08D7F89839A8308
:1026AC00FA014081518162817381CE0101967C01D6
:1026BC000AE010E09401C6010E94541009811A81AD
:1026CC00F6014085518541505109481B590BB30106
:1026DC00680F791F9401C5010E9473149C01F501C8
:1026EC008081918190FF06C0F601828193818217CF
:0E26FC0093070CF4C9012296EEE00C948818A6
:10270A00E89409C097FB3EF4909580957095619581
:10271A007F4F8F4F9F4F9923A9F0F92F96E9BB2737
:10272A009395F695879577956795B795F111F8CFB3
:10273A00FAF4BB0F11F460FF1BC06F5F7F4F8F4F1E
:10274A009F4F16C0882311F096E911C0772321F014
:10275A009EE8872F762F05C0662371F096E8862FAC
:10276A0070E060E02AF09A95660F771F881FDAF703
:0A277A00880F9695879597F908954A
:1027840040E168ED81E690E00E944A1A44E168ED78
:1027940086E690E00E944A1A40E068ED88E790E0FF
:1027A4000E944A1A40E068ED88E690E00E944A1AC6
:1027B40040E068ED89E690E00E944A1A40E068ED46
:1027C40080E790E00E944A1A40E068ED81E790E0DB
:1027D4000E944A1A40E068ED8CE790E00E944A1A91
:1027E40040E068ED80E690E00E944A1AE0E6F0E0FE
:0827F400858181FFFDCF0895EE
:1027FC00A2E8B0E0E4E0F4E10C9458185C014A0162
:10280C00CF57DF4F68837983C158D040C12CD12C6E
:10281C00CF57DF4FE881F981C158D04080818823A0
:10282C00E9F07401860120E830E0AE014F5F5F4FA4
:10283C00BE016F577F4FC5010E94D2068C0D9D1DA6
:10284C008C159D054CF48FE490E080930078909368
:10285C0001788FEF9FEF03C06C01DACFC601CE5722
:08286C00DF4FECE00C948A1828
:102874001F920F920FB60F9211242F933F934F93F1
:102884005F936F937F938F939F93AF93BF93EF93D4
:10289400FF931F9B05C0E0913C79F0913D79099528
:1028A4001D9B05C0E0912679F091277909951C9B21
:1028B40005C0E0912479F091257909958FEF83B9CA
:1028C400FF91EF91BF91AF919F918F917F916F9104
:1028D4005F914F913F912F910F900FBE0F901F90DA
:0228E400189545
:1028E600A0E0B0E0E9E7F4E10C9458186C015B0154
:1028F6007A01E901480181E08822992400FD03C09C
:102906004217530750F0A701B501C6010E940318EC
:10291600EC16FD0610F0C70117C08E010E191F092F
:102926000115110541F0B60180E290E00E946212A5
:1029360001501109F5CF8114910429F4A701B501BD
:10294600C6010E940318CE01CDB7DEB7ECE00C94A9
:022956008A18DD
:1029580083E0809352791092407910924179E0E0B7
:10296800FAE0108281E0828793EF9183128298E1E6
:102978009383148215821682178210861186168612
:10298800178610A211A220E030E822A333A314A2D4
:1029980015A227EE33E026A337A310A611A612A688
:1029A80013A614A615A616A617A693859387808343
:0629B8008093537908959D
:1029BE001F920F920FB60F9211242F933F934F93A6
:1029CE005F936F937F938F939F93AF93BF93EF9389
:1029DE00FF935A9B05C0E0913E79F0913F7909959E
:1029EE005B9B05C0E0912879F091297909958FEFCD
:1029FE008BB9FF91EF91BF91AF919F918F917F9185
:102A0E006F915F914F913F912F910F900FBE0F904D
:042A1E001F90189558
:102A22001F920F920FB60F9211242F933F934F9341
:102A32005F936F937F938F939F93AF93BF93EF9324
:102A4200FF93E0E0F6E080E2858380E1858388E021
:102A52008583E0911679F0911779309709F00995FD
:102A6200FF91EF91BF91AF919F918F917F916F9164
:102A72005F914F913F912F910F900FBE0F901F903A
:022A82001895A5
:102A84000E942C1788F09F5798F0B92F9927B751B7
:102A9400B0F0E1F0660F771F881F991F1AF0BA95FE
:102AA400C9F714C0B13091F00E94241AB1E008951E
:102AB4000C94241A672F782F8827B85F39F0B93F10
:102AC400CCF3869577956795B395D9F73EF49095B1
:0E2AD4008095709561957F4F8F4F9F4F0895AD
:102AE200E0E0F8E086EB92E080879187158280EC47
:102AF200868383E0878313861486168615868CE880
:102B02009AE180934679909347798DE89AE1809390
:102B12004479909345798EE89AE180934279909333
:102B220043791092487910924979E0914E79F09167
:0C2B32004F7982E099E780839183089539
:102B3E00DC01ED91FC91119780818A3221F080E0C9
:102B4E0090E03AE00EC03196ED93FC93DB01ED91EF
:102B5E00FC911197CF0102968D939C938081918168
:102B6E000895ED91FC911197208120532A3068F43D
:102B7E00389FA001399F500D1124CA01820F911D5B
:0C2B8E003196ED93FC931197ECCF089565
:102B9A00E0E0F2E0108A80E1818B128A138A148ABB
:102BAA00158A10A610A211A212A213A214A215A28B
:102BBA0016A217A211A612A613A614A610AA11AA43
:102BCA0012AA13AA15A616A617A615AA14AA82E06F
:102BDA0086AB17AA10AE10921804109258041092DD
:0A2BEA0078041092B80480E008950A
:102BF4001F920F920FB60F9211242F933F934F936E
:102C04005F936F937F938F939F93AF93BF93EF9350
:102C1400FF9381E080938706E0911279F091137914
:102C2400309709F00995FF91EF91BF91AF919F9172
:102C34008F917F916F915F914F913F912F910F9061
:082C44000FBE0F901F901895C0
:102C4C001F920F920FB60F9211242F933F934F9315
:102C5C005F936F937F938F939F93AF93BF93EF93F8
:102C6C00FF9381E080938F06E0911479F0911579B0
:102C7C00309709F00995FF91EF91BF91AF919F911A
:102C8C008F917F916F915F914F913F912F910F9009
:082C9C000FBE0F901F90189568
:102CA4001F920F920FB60F9211242F933F934F93BD
:102CB4005F936F937F938F939F93AF93BF93EF93A0
:102CC400FF9382E080930506E0911A79F0911B79D5
:102CD400309709F00995FF91EF91BF91AF919F91C2
:102CE4008F917F916F915F914F913F912F910F90B1
:082CF4000FBE0F901F90189510
:102CFC001F920F920FB60F9211242F933F934F9365
:102D0C005F936F937F938F939F93AF93BF93EF9347
:102D1C00FF9381E080930506E0911879F091197981
:102D2C00309709F00995FF91EF91BF91AF919F9169
:102D3C008F917F916F915F914F913F912F910F9058
:082D4C000FBE0F901F901895B7
:102D54001F920F920FB60F9211242F933F934F930C
:102D64005F936F937F938F939F93AF93BF93EF93EF
:102D7400FF9381E080930B0AE0914079F0914179CF
:102D8400309709F00995FF91EF91BF91AF919F9111
:102D94008F917F916F915F914F913F912F910F9000
:082DA4000FBE0F901F9018955F
:102DAC00A0E0B0E0ECEDF6E10C945A187C01FB01CC
:102DBC00EA01C901A280B380C480D5800081118151
:102DCC00209711F4C2EDD4EB009719F4CE010E94B8
:102DDC004F19B7FC04C0A816B90608F4C501960132
:102DEC00AC01BE01C7010E947314CDB7DEB7EAE097
:042DFC000C948C188F
:102E0000990F0008550FAA0BE0E8FEEF16161706FB
:102E1000E807F907C0F012161306E407F50798F063
:102E2000621B730B840B950B39F40A2661F0232B7C
:102E3000242B252B21F408950A2609F4A140A695F8
:082E40008FEF811D811D089533
:102E480057FD9058440F551F59F05F3F71F0479553
:102E5800880F97FB991F61F09F3F79F08795089538
:102E6800121613061406551FF2CF4695F1DF08C057
:102E7800161617061806991FF1CF86957105610574
:042E8800089408950D
:102E8C00A1E21A2EAA1BBB1BFD010DC0AA1FBB1F62
:102E9C00EE1FFF1FA217B307E407F50720F0A21BD4
:102EAC00B30BE40BF50B661F771F881F991F1A9441
:102EBC0069F760957095809590959B01AC01BD016B
:042ECC00CF01089595
:102ED0000E9415190E94591A8823E1F389EF90E0A6
:102EE0000197F1F700C000000E94B8190E948513F5
:102EF00020E030E04CE552E40E94651A2FE632E112
:102F000043E852E40E94611A0E944215CB010895E1
:102F1000CF93DF93EC0190E0E92FF0E0EE0FFF1F7D
:102F2000E65AFC448081811102C081810EC0A881D3
:102F3000B9812C91821305C091811196A883B98320
:102F400001C09F5F9B3040F3892FDF91CF9108959F
:102F5000FA0160387105CCF0623871051CF06338F5
:102F6000710599F4A081B1819D012C5F3F4F2083B1
:102F700031834D915D916D917C91FC014083518332
:102F80006283738381E090E0089580E090E008958B
:102F9000E0E8FCE08FE080831182128283E084838A
:102FA00015821682108611861386148685E0828724
:102FB000178684E0808B818B138A148A158A8FEFA1
:0C2FC000878B178215868685868708950A
:102FCC00E0ECF1E01582178286E081878287158616
:102FDC001686118A128A158A168A1182128282E347
:102FEC0083871786138A178A89E080871486108A4C
:0A2FFC00148A81E0808380E00895CC
:10300600A0E0B0E0E9E0F8E10C945C186C01EB019B
:103016008A017B01E40EF51ECE15DF0541F089918C
:10302600B601082E000C990B0E946212F5CFC8015A
:0A303600CDB7DEB7E8E00C948E1869
:10304000E0E0F6E0118280E38187128213829FEF35
:1030500090871386178291E19287148294E1948776
:103060008587168E178E148E158E81E0808380E002
:023070000895C1
:103072000E94C2130E94BE090E9476190E94811901
:103082000E9420180E9405190E94E6170E94CD1581
:103092000E94AC140E9471150E94C8170E945D190B
:0230A20008958F
:1030A4002F923F924F925F926F927F928F929F9254
:1030B400AF92BF92CF92DF92EF92FF920F931F9342
:1030C400CF93DF93CDB7DEB7CA1BDB0BCDBFDEBF1B
:0230D40009945D
:1030D6000F93083090F0982F872F762F652F542F57
:1030E600432F322F22270850F4CF220F331F441FBD
:1030F600551F661F771F881F991F0A95B2F70F91F4
:0231060008952A
:103108002A88398848885F846E847D848C849B846F
:10311800AA84B984C884DF80EE80FD800C811B817D
:10312800AA81B981CE0FD11DCDBFDEBFED010895B3
:10313800A0E0B0E0E2EAF8E10C946218AE014B5F5F
:103148005F4FFA0161917191AF01E0914E79F09171
:103158004F79808191810E94B418E2E00C94941810
:10316800A2E0B0E0EAEBF8E10C9460188C01498326
:103178005A83AE014F5F5F4F0E94FE13F801208112
:1031880024FF02C08FEF9FEF2296E4E00C94921880
:1031980097FB072E16F4009407D077FD09D00E94FC
:1031A800E01807FC05D03EF4909581959F4F08954F
:0831B800709561957F4F0895A9
:1031C000AA1BBB1B51E107C0AA1FBB1FA617B7074D
:1031D00010F0A61BB70B881F991F5A95A9F7809569
:0831E0009095BC01CD0108959A
:1031E800092E0394000C11F4882352F0BB0F40F40D
:1031F800BF2B11F460FF04C06F5F7F4F8F4F9F4F4D
:02320800089527
:10320A0044E068ED80EA90E00E944A1AE0EAF0E0C1
:10321A0082E08183118612861386108680E00895E3
:10322A00E0E0F6E09485907C94879485892B8487E6
:0E323A0082858F7782878285816082870895E2
:10324800A29FB001B39FC001A39F700D811D1124DF
:0E325800911DB29F700D811D1124911D0895CE
:10326600882331F0E0E0FAE0838184608383089567
:0C327600E0E0FAE083818B7F8383089501
:10328200689401C0E8948F929F92CF93DF930E943B
:0C329200C111DF91CF919F908F900895A3
:10329E00FC01AF014F5F5F4F2081222311F0FA0135
:0C32AE00F8CF9F01281B390BC9010895BF
:1032BA0040E068ED80E191E00E944A1AE0E1F1E025
:0A32CA0012821382789480E00895C8
:1032D400CF93C82F0E94381A8823E1F3C0930208C1
:0832E40080E090E0CF91089515
:1032EC00E0E8F6E011821582168283E2828381E0A7
:0632FC00808380E00895CC
:10330200E8E8F6E011821582168283E3828381E087
:06331200808380E00895B5
:10331800E0E0FAE080AF91AF62AF73AF44AF55AF72
:0633280026AF37AF089547
:10332E000E942419A59F900DB49F900DA49F800D0F
:06333E00911D1124089509
:10334400EC010E94901A0E948F1ACE010E94911AD9
:06335400CE010E94771A71
:10335A0068076C094C836A9074A07AC000806888F8
:06336A0000846C8200816A
:1033700060911006709111068091120690911306CB
:023380000895AE
:103382009C019FB7F89420934079309341799FBF75
:0233920008959C
:103394009C019FB7F8942093220A3093230A9FBF7D
:0233A40008958A
:1033A6000E942419460F571FC81FD91F08F43196CB
:0233B600089578
:1033B8002A153B054C055D056E057F0580079107BD
:0233C800089566
:1033CA00FC01480F591FE417F50711F06193FBCF71
:0233DA00089554
:1033DC009C01215631092A31310510F48F7599273A
:0233EC00089542
:1033EE00494E4600696E66004E414E006E616E009B
:1033FE00FC01DB012D91BD0121932111FACF08951E
:10340E009C01215431092A31310508F48062089556
:0E341E005058BB27AA270E94ED0F0C94F418FB
:0E342C0000240A9416161706180609060895BD
:0E343A0000240A9412161306140605060895BF
:0E344800E894BB2766277727CB0197F90895F4
:0E3456000E9442156894B1110C94251A089535
:0C3464008F9381E08093AA008F9118954F
:0C3470008091040885FB882780F90895EE
:0C347C0097F99F6780E870E060E0089519
:0C348800EE0FFF1F0590F491E02D099459
:0A3494001BBEFC0164BF40830895D5
:0A349E000E94001708F481E0089571
:0A34A8000E94001708F48FEF08954A
:0834B200809105068170089568
:0834BA0081E08093547908952C
:0834C2000E94AC0E0C94F418FA
:0834CA000E941B0F0C94F41882
:0734D200286E756C6C2900E7
:0134D90001F1
:0634DA009FEF80EC089555
:0634E000286E696C290052
:0434E6000C94000042
:0434EA009F7708952B
:0434EE000E948300B5
:0234F20018952B
:0234F400089539
:0234F600089537
:0234F800089535
:0234FA00089533
:0234FC00089531
:0234FE0008952F
:0235000008952C
:0235020008952A
:02350400089528
:02350600089526
:02350800089524
:02350A00089522
:02350C00089520
:02350E0008951E
:0235100008951C
:0235120008951A
:02351400089518
:02351600089516
:02351800089514
:02351A00089512
:02351C00089510
:02351E0008950E
:0235200008950C
:0235220008950A
:103524000300000000000000000000006A19000011
:023534005079CC
:02000004008278
:0C0000000000000000D00700000003001A
:00000001FF
